{
  "contractName": "Crowdsale",
  "abi": [
    {
      "constant": true,
      "inputs": [],
      "name": "rate",
      "outputs": [
        {
          "name": "",
          "type": "uint256"
        }
      ],
      "payable": false,
      "stateMutability": "view",
      "type": "function"
    },
    {
      "constant": true,
      "inputs": [],
      "name": "endTime",
      "outputs": [
        {
          "name": "",
          "type": "uint256"
        }
      ],
      "payable": false,
      "stateMutability": "view",
      "type": "function"
    },
    {
      "constant": true,
      "inputs": [],
      "name": "initialTokens",
      "outputs": [
        {
          "name": "",
          "type": "uint256"
        }
      ],
      "payable": false,
      "stateMutability": "view",
      "type": "function"
    },
    {
      "constant": true,
      "inputs": [],
      "name": "tokensSold",
      "outputs": [
        {
          "name": "",
          "type": "uint256"
        }
      ],
      "payable": false,
      "stateMutability": "view",
      "type": "function"
    },
    {
      "constant": true,
      "inputs": [],
      "name": "startTime",
      "outputs": [
        {
          "name": "",
          "type": "uint256"
        }
      ],
      "payable": false,
      "stateMutability": "view",
      "type": "function"
    },
    {
      "constant": true,
      "inputs": [],
      "name": "owner",
      "outputs": [
        {
          "name": "",
          "type": "address"
        }
      ],
      "payable": false,
      "stateMutability": "view",
      "type": "function"
    },
    {
      "constant": true,
      "inputs": [],
      "name": "queue",
      "outputs": [
        {
          "name": "",
          "type": "address"
        }
      ],
      "payable": false,
      "stateMutability": "view",
      "type": "function"
    },
    {
      "constant": true,
      "inputs": [],
      "name": "token",
      "outputs": [
        {
          "name": "",
          "type": "address"
        }
      ],
      "payable": false,
      "stateMutability": "view",
      "type": "function"
    },
    {
      "inputs": [
        {
          "name": "_initialTokens",
          "type": "uint256"
        },
        {
          "name": "_rate",
          "type": "uint256"
        },
        {
          "name": "duration",
          "type": "uint256"
        },
        {
          "name": "queueTimecap",
          "type": "uint256"
        }
      ],
      "payable": false,
      "stateMutability": "nonpayable",
      "type": "constructor"
    },
    {
      "anonymous": false,
      "inputs": [
        {
          "indexed": false,
          "name": "buyer",
          "type": "address"
        }
      ],
      "name": "TokenPurchased",
      "type": "event"
    },
    {
      "anonymous": false,
      "inputs": [
        {
          "indexed": false,
          "name": "seller",
          "type": "address"
        }
      ],
      "name": "TokenSold",
      "type": "event"
    },
    {
      "constant": false,
      "inputs": [
        {
          "name": "initialTokens",
          "type": "uint256"
        }
      ],
      "name": "createToken",
      "outputs": [],
      "payable": false,
      "stateMutability": "nonpayable",
      "type": "function"
    },
    {
      "constant": false,
      "inputs": [
        {
          "name": "amount",
          "type": "uint256"
        }
      ],
      "name": "mintTokens",
      "outputs": [],
      "payable": false,
      "stateMutability": "nonpayable",
      "type": "function"
    },
    {
      "constant": false,
      "inputs": [
        {
          "name": "amount",
          "type": "uint256"
        }
      ],
      "name": "burnTokens",
      "outputs": [],
      "payable": false,
      "stateMutability": "nonpayable",
      "type": "function"
    },
    {
      "constant": false,
      "inputs": [],
      "name": "enterQueue",
      "outputs": [],
      "payable": false,
      "stateMutability": "nonpayable",
      "type": "function"
    },
    {
      "constant": false,
      "inputs": [],
      "name": "checkTime",
      "outputs": [],
      "payable": false,
      "stateMutability": "nonpayable",
      "type": "function"
    },
    {
      "constant": false,
      "inputs": [],
      "name": "checkPlace",
      "outputs": [],
      "payable": false,
      "stateMutability": "nonpayable",
      "type": "function"
    },
    {
      "constant": false,
      "inputs": [
        {
          "name": "amount",
          "type": "uint256"
        }
      ],
      "name": "buyTokens",
      "outputs": [],
      "payable": true,
      "stateMutability": "payable",
      "type": "function"
    },
    {
      "constant": false,
      "inputs": [
        {
          "name": "amount",
          "type": "uint256"
        }
      ],
      "name": "refundTokens",
      "outputs": [],
      "payable": false,
      "stateMutability": "nonpayable",
      "type": "function"
    },
    {
      "constant": true,
      "inputs": [],
      "name": "timeRemaining",
      "outputs": [
        {
          "name": "",
          "type": "uint256"
        }
      ],
      "payable": false,
      "stateMutability": "view",
      "type": "function"
    },
    {
      "constant": false,
      "inputs": [],
      "name": "sendOwnerFunds",
      "outputs": [],
      "payable": false,
      "stateMutability": "nonpayable",
      "type": "function"
    }
  ],
  "bytecode": "0x6060604052341561000f57600080fd5b60405160808061298983398101604052808051906020019091908051906020019091908051906020019091908051906020019091905050336000806101000a81548173ffffffffffffffffffffffffffffffffffffffff021916908373ffffffffffffffffffffffffffffffffffffffff1602179055504260068190555081600654016007819055508260048190555083600381905550806100af610118565b80828152602001915050604051809103906000f08015156100cf57600080fd5b600260006101000a81548173ffffffffffffffffffffffffffffffffffffffff021916908373ffffffffffffffffffffffffffffffffffffffff16021790555050505050610128565b6040516108198061217083390190565b612039806101376000396000f3006060604052600436106100fc576000357c0100000000000000000000000000000000000000000000000000000000900463ffffffff168063029073ad146101015780632c4e722e146101165780632d571cc41461013f5780633197cbb6146101625780633610724e1461018b57806350bfeadc146101a3578063518ab2a8146101cc5780635dfee9bb146101f55780636c4b6ba9146102185780636d1b229d1461022d57806378e97925146102505780638da5cb5b1461027957806397304ced146102ce578063ad7d59fc146102f1578063e0c6190d14610306578063e10d29ee1461031b578063e3cfef6014610370578063fc0c546a14610399575b600080fd5b341561010c57600080fd5b6101146103ee565b005b341561012157600080fd5b610129610594565b6040518082815260200191505060405180910390f35b341561014a57600080fd5b610160600480803590602001909190505061059a565b005b341561016d57600080fd5b610175610661565b6040518082815260200191505060405180910390f35b6101a16004808035906020019091905050610667565b005b34156101ae57600080fd5b6101b6610a25565b6040518082815260200191505060405180910390f35b34156101d757600080fd5b6101df610a2b565b6040518082815260200191505060405180910390f35b341561020057600080fd5b6102166004808035906020019091905050610a31565b005b341561022357600080fd5b61022b610bff565b005b341561023857600080fd5b61024e6004808035906020019091905050610ccf565b005b341561025b57600080fd5b610263610dd1565b6040518082815260200191505060405180910390f35b341561028457600080fd5b61028c610dd7565b604051808273ffffffffffffffffffffffffffffffffffffffff1673ffffffffffffffffffffffffffffffffffffffff16815260200191505060405180910390f35b34156102d957600080fd5b6102ef6004808035906020019091905050610dfc565b005b34156102fc57600080fd5b610304610efe565b005b341561031157600080fd5b610319610ffe565b005b341561032657600080fd5b61032e61102b565b604051808273ffffffffffffffffffffffffffffffffffffffff1673ffffffffffffffffffffffffffffffffffffffff16815260200191505060405180910390f35b341561037b57600080fd5b610383611051565b6040518082815260200191505060405180910390f35b34156103a457600080fd5b6103ac61105d565b604051808273ffffffffffffffffffffffffffffffffffffffff1673ffffffffffffffffffffffffffffffffffffffff16815260200191505060405180910390f35b60065442118015610400575060075442105b151561040b57600080fd5b6005600260009054906101000a900473ffffffffffffffffffffffffffffffffffffffff1673ffffffffffffffffffffffffffffffffffffffff16633e3c9eae6000604051602001526040518163ffffffff167c0100000000000000000000000000000000000000000000000000000000028152600401602060405180830381600087803b151561049b57600080fd5b6102c65a03f115156104ac57600080fd5b505050604051805190501015156104c257600080fd5b600260009054906101000a900473ffffffffffffffffffffffffffffffffffffffff1673ffffffffffffffffffffffffffffffffffffffff16638f807f6b336040518263ffffffff167c0100000000000000000000000000000000000000000000000000000000028152600401808273ffffffffffffffffffffffffffffffffffffffff1673ffffffffffffffffffffffffffffffffffffffff168152602001915050600060405180830381600087803b151561057e57600080fd5b6102c65a03f1151561058f57600080fd5b505050565b60045481565b6000809054906101000a900473ffffffffffffffffffffffffffffffffffffffff1673ffffffffffffffffffffffffffffffffffffffff163373ffffffffffffffffffffffffffffffffffffffff161415156105f557600080fd5b806105fe611083565b80828152602001915050604051809103906000f080151561061e57600080fd5b600160006101000a81548173ffffffffffffffffffffffffffffffffffffffff021916908373ffffffffffffffffffffffffffffffffffffffff16021790555050565b60075481565b60006006544211801561067b575060075442105b151561068657600080fd5b3373ffffffffffffffffffffffffffffffffffffffff16600260009054906101000a900473ffffffffffffffffffffffffffffffffffffffff1673ffffffffffffffffffffffffffffffffffffffff16631e2231436000604051602001526040518163ffffffff167c0100000000000000000000000000000000000000000000000000000000028152600401602060405180830381600087803b151561072b57600080fd5b6102c65a03f1151561073c57600080fd5b5050506040518051905073ffffffffffffffffffffffffffffffffffffffff1614801561081157506001600260009054906101000a900473ffffffffffffffffffffffffffffffffffffffff1673ffffffffffffffffffffffffffffffffffffffff16633e3c9eae6000604051602001526040518163ffffffff167c0100000000000000000000000000000000000000000000000000000000028152600401602060405180830381600087803b15156107f457600080fd5b6102c65a03f1151561080557600080fd5b50505060405180519050115b151561081c57600080fd5b349050600454810282111515610a215781600860008282540192505081905550600160009054906101000a900473ffffffffffffffffffffffffffffffffffffffff1673ffffffffffffffffffffffffffffffffffffffff1663b08079a633846040518363ffffffff167c0100000000000000000000000000000000000000000000000000000000028152600401808373ffffffffffffffffffffffffffffffffffffffff1673ffffffffffffffffffffffffffffffffffffffff16815260200182815260200192505050600060405180830381600087803b151561090057600080fd5b6102c65a03f1151561091157600080fd5b50505080600560008282540192505081905550600260009054906101000a900473ffffffffffffffffffffffffffffffffffffffff1673ffffffffffffffffffffffffffffffffffffffff1663957908d16040518163ffffffff167c0100000000000000000000000000000000000000000000000000000000028152600401600060405180830381600087803b15156109a957600080fd5b6102c65a03f115156109ba57600080fd5b5050507f1b2bd3ab48c034c8c92c16a4cabb207b537fb695d6f7b9ef314f01cf69fe073b33604051808273ffffffffffffffffffffffffffffffffffffffff1673ffffffffffffffffffffffffffffffffffffffff16815260200191505060405180910390a15b5050565b60035481565b60085481565b600060065442118015610a45575060075442105b1515610a5057600080fd5b81600860008282540392505081905550600160009054906101000a900473ffffffffffffffffffffffffffffffffffffffff1673ffffffffffffffffffffffffffffffffffffffff16632087bedd33846040518363ffffffff167c0100000000000000000000000000000000000000000000000000000000028152600401808373ffffffffffffffffffffffffffffffffffffffff1673ffffffffffffffffffffffffffffffffffffffff16815260200182815260200192505050600060405180830381600087803b1515610b2457600080fd5b6102c65a03f11515610b3557600080fd5b50505060045482811515610b4557fe5b0490503373ffffffffffffffffffffffffffffffffffffffff166108fc829081150290604051600060405180830381858888f193505050501515610b8857600080fd5b806005600082825403925050819055507fed99b7de8f6f61185f9b06294690179c033310b4f6bbdb1f95045cd113be403f33604051808273ffffffffffffffffffffffffffffffffffffffff1673ffffffffffffffffffffffffffffffffffffffff16815260200191505060405180910390a15050565b6000809054906101000a900473ffffffffffffffffffffffffffffffffffffffff1673ffffffffffffffffffffffffffffffffffffffff163373ffffffffffffffffffffffffffffffffffffffff16141515610c5a57600080fd5b60075442111515610c6a57600080fd5b6000809054906101000a900473ffffffffffffffffffffffffffffffffffffffff1673ffffffffffffffffffffffffffffffffffffffff166108fc6005549081150290604051600060405180830381858888f193505050501515610ccd57600080fd5b565b6000809054906101000a900473ffffffffffffffffffffffffffffffffffffffff1673ffffffffffffffffffffffffffffffffffffffff163373ffffffffffffffffffffffffffffffffffffffff16141515610d2a57600080fd5b600160009054906101000a900473ffffffffffffffffffffffffffffffffffffffff1673ffffffffffffffffffffffffffffffffffffffff1663b8cb65ee826040518263ffffffff167c010000000000000000000000000000000000000000000000000000000002815260040180828152602001915050600060405180830381600087803b1515610dba57600080fd5b6102c65a03f11515610dcb57600080fd5b50505050565b60065481565b6000809054906101000a900473ffffffffffffffffffffffffffffffffffffffff1681565b6000809054906101000a900473ffffffffffffffffffffffffffffffffffffffff1673ffffffffffffffffffffffffffffffffffffffff163373ffffffffffffffffffffffffffffffffffffffff16141515610e5757600080fd5b600160009054906101000a900473ffffffffffffffffffffffffffffffffffffffff1673ffffffffffffffffffffffffffffffffffffffff1663c6ed8990826040518263ffffffff167c010000000000000000000000000000000000000000000000000000000002815260040180828152602001915050600060405180830381600087803b1515610ee757600080fd5b6102c65a03f11515610ef857600080fd5b50505050565b60065442118015610f10575060075442105b1515610f1b57600080fd5b600260009054906101000a900473ffffffffffffffffffffffffffffffffffffffff1673ffffffffffffffffffffffffffffffffffffffff16636b4cc50b336000604051602001526040518263ffffffff167c0100000000000000000000000000000000000000000000000000000000028152600401808273ffffffffffffffffffffffffffffffffffffffff1673ffffffffffffffffffffffffffffffffffffffff168152602001915050602060405180830381600087803b1515610fe057600080fd5b6102c65a03f11515610ff157600080fd5b5050506040518051905050565b60065442118015611010575060075442105b151561101b57600080fd5b600260009054906101000a905050565b600260009054906101000a900473ffffffffffffffffffffffffffffffffffffffff1681565b60004260075403905090565b600160009054906101000a900473ffffffffffffffffffffffffffffffffffffffff1681565b604051610f7a806110948339019056006060604052341561000f57600080fd5b604051602080610f7a833981016040528080519060200190919050508060028190555050610f38806100426000396000f3006060604052600436106100a4576000357c0100000000000000000000000000000000000000000000000000000000900463ffffffff168063095ea7b3146100a95780632087bedd1461010357806323b872dd1461014557806370a08231146101be5780639dc29fac1461020b578063a9059cbb14610265578063b08079a6146102bf578063b8cb65ee14610301578063c6ed899014610324578063dd62ed3e14610347575b600080fd5b34156100b457600080fd5b6100e9600480803573ffffffffffffffffffffffffffffffffffffffff169060200190919080359060200190919050506103b3565b604051808215151515815260200191505060405180910390f35b341561010e57600080fd5b610143600480803573ffffffffffffffffffffffffffffffffffffffff169060200190919080359060200190919050506104a5565b005b341561015057600080fd5b6101a4600480803573ffffffffffffffffffffffffffffffffffffffff1690602001909190803573ffffffffffffffffffffffffffffffffffffffff16906020019091908035906020019091905050610533565b604051808215151515815260200191505060405180910390f35b34156101c957600080fd5b6101f5600480803573ffffffffffffffffffffffffffffffffffffffff1690602001909190505061089e565b6040518082815260200191505060405180910390f35b341561021657600080fd5b61024b600480803573ffffffffffffffffffffffffffffffffffffffff169060200190919080359060200190919050506108e6565b604051808215151515815260200191505060405180910390f35b341561027057600080fd5b6102a5600480803573ffffffffffffffffffffffffffffffffffffffff16906020019091908035906020019091905050610bb8565b604051808215151515815260200191505060405180910390f35b34156102ca57600080fd5b6102ff600480803573ffffffffffffffffffffffffffffffffffffffff16906020019091908035906020019091905050610d96565b005b341561030c57600080fd5b6103226004808035906020019091905050610e24565b005b341561032f57600080fd5b6103456004808035906020019091905050610e39565b005b341561035257600080fd5b61039d600480803573ffffffffffffffffffffffffffffffffffffffff1690602001909190803573ffffffffffffffffffffffffffffffffffffffff16906020019091905050610e4e565b6040518082815260200191505060405180910390f35b600081600160003373ffffffffffffffffffffffffffffffffffffffff1673ffffffffffffffffffffffffffffffffffffffff16815260200190815260200160002060008573ffffffffffffffffffffffffffffffffffffffff1673ffffffffffffffffffffffffffffffffffffffff168152602001908152602001600020819055508273ffffffffffffffffffffffffffffffffffffffff163373ffffffffffffffffffffffffffffffffffffffff167f8c5be1e5ebec7d5bd14f71427d1e84f3dd0314c0f7b2291e5b200ac8c7c3b925846040518082815260200191505060405180910390a36001905092915050565b6104ed6000808473ffffffffffffffffffffffffffffffffffffffff1673ffffffffffffffffffffffffffffffffffffffff1681526020019081526020016000205482610ed5565b6000808473ffffffffffffffffffffffffffffffffffffffff1673ffffffffffffffffffffffffffffffffffffffff168152602001908152602001600020819055505050565b6000816000808673ffffffffffffffffffffffffffffffffffffffff1673ffffffffffffffffffffffffffffffffffffffff1681526020019081526020016000205410806105fc575081600160008673ffffffffffffffffffffffffffffffffffffffff1673ffffffffffffffffffffffffffffffffffffffff16815260200190815260200160002060003373ffffffffffffffffffffffffffffffffffffffff1673ffffffffffffffffffffffffffffffffffffffff16815260200190815260200160002054105b1561060a5760009050610897565b6106526000808673ffffffffffffffffffffffffffffffffffffffff1673ffffffffffffffffffffffffffffffffffffffff1681526020019081526020016000205483610ed5565b6000808673ffffffffffffffffffffffffffffffffffffffff1673ffffffffffffffffffffffffffffffffffffffff1681526020019081526020016000208190555061071a600160008673ffffffffffffffffffffffffffffffffffffffff1673ffffffffffffffffffffffffffffffffffffffff16815260200190815260200160002060003373ffffffffffffffffffffffffffffffffffffffff1673ffffffffffffffffffffffffffffffffffffffff1681526020019081526020016000205483610ed5565b600160008673ffffffffffffffffffffffffffffffffffffffff1673ffffffffffffffffffffffffffffffffffffffff16815260200190815260200160002060003373ffffffffffffffffffffffffffffffffffffffff1673ffffffffffffffffffffffffffffffffffffffff168152602001908152602001600020819055506107e26000808573ffffffffffffffffffffffffffffffffffffffff1673ffffffffffffffffffffffffffffffffffffffff1681526020019081526020016000205483610eee565b6000808573ffffffffffffffffffffffffffffffffffffffff1673ffffffffffffffffffffffffffffffffffffffff168152602001908152602001600020600082825403925050819055508273ffffffffffffffffffffffffffffffffffffffff168473ffffffffffffffffffffffffffffffffffffffff167fddf252ad1be2c89b69c2b068fc378daa952ba7f163c4a11628f55a4df523b3ef846040518082815260200191505060405180910390a3600190505b9392505050565b60008060008373ffffffffffffffffffffffffffffffffffffffff1673ffffffffffffffffffffffffffffffffffffffff168152602001908152602001600020549050919050565b6000816000808573ffffffffffffffffffffffffffffffffffffffff1673ffffffffffffffffffffffffffffffffffffffff1681526020019081526020016000205410806109af575081600160008573ffffffffffffffffffffffffffffffffffffffff1673ffffffffffffffffffffffffffffffffffffffff16815260200190815260200160002060003373ffffffffffffffffffffffffffffffffffffffff1673ffffffffffffffffffffffffffffffffffffffff16815260200190815260200160002054105b156109bd5760009050610bb2565b610a056000808573ffffffffffffffffffffffffffffffffffffffff1673ffffffffffffffffffffffffffffffffffffffff1681526020019081526020016000205483610ed5565b6000808573ffffffffffffffffffffffffffffffffffffffff1673ffffffffffffffffffffffffffffffffffffffff16815260200190815260200160002081905550610acd600160008573ffffffffffffffffffffffffffffffffffffffff1673ffffffffffffffffffffffffffffffffffffffff16815260200190815260200160002060003373ffffffffffffffffffffffffffffffffffffffff1673ffffffffffffffffffffffffffffffffffffffff1681526020019081526020016000205483610ed5565b600160008573ffffffffffffffffffffffffffffffffffffffff1673ffffffffffffffffffffffffffffffffffffffff16815260200190815260200160002060003373ffffffffffffffffffffffffffffffffffffffff1673ffffffffffffffffffffffffffffffffffffffff16815260200190815260200160002081905550610b5960025483610ed5565b6002819055508273ffffffffffffffffffffffffffffffffffffffff167fcc16f5dbb4873280815c1ee09dbd06736cffcc184412cf7a71a0fdb75d397ca5836040518082815260200191505060405180910390a2600190505b92915050565b6000816000803373ffffffffffffffffffffffffffffffffffffffff1673ffffffffffffffffffffffffffffffffffffffff168152602001908152602001600020541015610c095760009050610d90565b610c516000803373ffffffffffffffffffffffffffffffffffffffff1673ffffffffffffffffffffffffffffffffffffffff1681526020019081526020016000205483610ed5565b6000803373ffffffffffffffffffffffffffffffffffffffff1673ffffffffffffffffffffffffffffffffffffffff16815260200190815260200160002081905550610cdb6000808573ffffffffffffffffffffffffffffffffffffffff1673ffffffffffffffffffffffffffffffffffffffff1681526020019081526020016000205483610eee565b6000808573ffffffffffffffffffffffffffffffffffffffff1673ffffffffffffffffffffffffffffffffffffffff168152602001908152602001600020600082825403925050819055508273ffffffffffffffffffffffffffffffffffffffff163373ffffffffffffffffffffffffffffffffffffffff167fddf252ad1be2c89b69c2b068fc378daa952ba7f163c4a11628f55a4df523b3ef846040518082815260200191505060405180910390a3600190505b92915050565b610dde6000808473ffffffffffffffffffffffffffffffffffffffff1673ffffffffffffffffffffffffffffffffffffffff1681526020019081526020016000205482610eee565b6000808473ffffffffffffffffffffffffffffffffffffffff1673ffffffffffffffffffffffffffffffffffffffff168152602001908152602001600020819055505050565b610e3060025482610ed5565b60028190555050565b610e4560025482610eee565b60028190555050565b6000600160008473ffffffffffffffffffffffffffffffffffffffff1673ffffffffffffffffffffffffffffffffffffffff16815260200190815260200160002060008373ffffffffffffffffffffffffffffffffffffffff1673ffffffffffffffffffffffffffffffffffffffff16815260200190815260200160002054905092915050565b6000828211151515610ee357fe5b818303905092915050565b6000808284019050838110151515610f0257fe5b80915050929150505600a165627a7a7230582089b32b6d5705548354c3f30e08238604451a8a55fa9b7b572fcb67a1542e05d30029a165627a7a72305820a804ede954bda19a5732b1fc2c7c5151cadff65a6096de023fee2282b653caa20029606060405260056000806101000a81548160ff021916908360ff16021790555060006001556000600255341561003457600080fd5b6040516020806108198339810160405280805190602001909190505080600681905550506107b2806100676000396000f30060606040526004361061008e576000357c0100000000000000000000000000000000000000000000000000000000900463ffffffff1680631e223143146100935780633e3c9eae146100e85780636b4cc50b14610111578063756c0e771461015e5780638f807f6b14610187578063957908d1146101c0578063e0c6190d146101d5578063f2a75fe4146101ea575b600080fd5b341561009e57600080fd5b6100a6610217565b604051808273ffffffffffffffffffffffffffffffffffffffff1673ffffffffffffffffffffffffffffffffffffffff16815260200191505060405180910390f35b34156100f357600080fd5b6100fb61026f565b6040518082815260200191505060405180910390f35b341561011c57600080fd5b610148600480803573ffffffffffffffffffffffffffffffffffffffff169060200190919050506102ab565b6040518082815260200191505060405180910390f35b341561016957600080fd5b610171610336565b6040518082815260200191505060405180910390f35b341561019257600080fd5b6101be600480803573ffffffffffffffffffffffffffffffffffffffff1690602001909190505061033c565b005b34156101cb57600080fd5b6101d36104ce565b005b34156101e057600080fd5b6101e861061d565b005b34156101f557600080fd5b6101fd610778565b604051808215151515815260200191505060405180910390f35b600080600061022461026f565b141561022f5761026b565b60036000600154815260200190815260200160002060009054906101000a900473ffffffffffffffffffffffffffffffffffffffff1690508091505b5090565b6000600154600254101561029e576001546000809054906101000a900460ff1660ff16600254010390506102a8565b6001546002540390505b90565b600080600460008473ffffffffffffffffffffffffffffffffffffffff1673ffffffffffffffffffffffffffffffffffffffff16815260200190815260200160002054905060008114156102fe57610330565b600154811015156103155760015481039150610330565b6001546000809054906101000a900460ff1660ff1682010391505b50919050565b60065481565b6000809054906101000a900460ff1660ff1661035661026f565b1415610361576104cb565b8060036000600254815260200190815260200160002060006101000a81548173ffffffffffffffffffffffffffffffffffffffff021916908373ffffffffffffffffffffffffffffffffffffffff160217905550600254600460003373ffffffffffffffffffffffffffffffffffffffff1673ffffffffffffffffffffffffffffffffffffffff168152602001908152602001600020819055507f67c9f2370687c002c73cdf82225aca9868ec476aa197c7fcef300216c5abb29c81604051808273ffffffffffffffffffffffffffffffffffffffff1673ffffffffffffffffffffffffffffffffffffffff16815260200191505060405180910390a142600560003373ffffffffffffffffffffffffffffffffffffffff1673ffffffffffffffffffffffffffffffffffffffff168152602001908152602001600020819055506000809054906101000a900460ff1660ff166001600254018115156104c357fe5b066002819055505b50565b60006104d861026f565b14156104e35761061b565b7ff961710e06f7076853cdcc4491e134553e9d28de2bb1329a894dd7d41edfe09160036000600154815260200190815260200160002060009054906101000a900473ffffffffffffffffffffffffffffffffffffffff16604051808273ffffffffffffffffffffffffffffffffffffffff1673ffffffffffffffffffffffffffffffffffffffff16815260200191505060405180910390a16004600060036000600154815260200190815260200160002060009054906101000a900473ffffffffffffffffffffffffffffffffffffffff1673ffffffffffffffffffffffffffffffffffffffff1673ffffffffffffffffffffffffffffffffffffffff168152602001908152602001600020600090556000809054906101000a900460ff1660ff16600180540181151561061357fe5b066001819055505b565b60008060036000600154815260200190815260200160002060009054906101000a900473ffffffffffffffffffffffffffffffffffffffff169150600560008373ffffffffffffffffffffffffffffffffffffffff1673ffffffffffffffffffffffffffffffffffffffff168152602001908152602001600020544203905060065481111561077457600460008373ffffffffffffffffffffffffffffffffffffffff1673ffffffffffffffffffffffffffffffffffffffff168152602001908152602001600020600090556000809054906101000a900460ff1660ff16600180540181151561070957fe5b066001819055507ff961710e06f7076853cdcc4491e134553e9d28de2bb1329a894dd7d41edfe09182604051808273ffffffffffffffffffffffffffffffffffffffff1673ffffffffffffffffffffffffffffffffffffffff16815260200191505060405180910390a15b5050565b6000600154600254149050905600a165627a7a72305820d730045054acd4da12dd1303533ee0c11594c3877aea31a154a5826e9955c1950029",
  "source": "pragma solidity ^0.4.15;\n\nimport './Queue.sol';\nimport './Token.sol';\n\n /**\n  * @title Crowdsale\n  * @dev Contract that deploys `Token.sol`\n  * Is timelocked, manages buyer queue, updates balances on `Token.sol`\n  */\n\n  contract Crowdsale {\n\n    address public owner;\n    Token public token;\n    Queue public queue;\n    uint public initialTokens;\n    uint public rate;\n    uint private totalFunds;\n    uint public startTime;\n    uint public endTime;\n    uint public tokensSold;\n\n    modifier ownerOnly() {\n      require(msg.sender == owner);\n      _;\n    }\n\n    modifier timeConstraint() {\n        require(now > startTime && now < endTime);\n        _;\n    }\n\n     event TokenPurchased(address buyer);\n     event TokenSold(address seller);\n\n    function Crowdsale(uint _initialTokens, uint _rate, uint duration, uint queueTimecap) {\n      owner = msg.sender;\n      startTime = now;\n      endTime = startTime + duration;\n      rate = _rate;\n      initialTokens = _initialTokens;\n      queue = new Queue(queueTimecap);\n\n    }\n\n    function createToken(uint initialTokens) ownerOnly {\n        token = new Token(initialTokens);\n    }\n\n    function mintTokens(uint amount) ownerOnly {\n      //add to totalSupply in Token.sol\n      token.addTokens(amount);\n    }\n\n    function burnTokens(uint amount) ownerOnly {\n      //subtract from totalSupply in Token.sol\n      token.removeTokens(amount);\n    }\n\n    function enterQueue() timeConstraint {\n        require(queue.qsize() < 5);\n        queue.enqueue(msg.sender);\n    }\n\n    function checkTime() timeConstraint {\n        queue.checkTime;\n    }\n\n    function checkPlace() timeConstraint {\n        queue.checkPlace(msg.sender);\n    }\n\n    function buyTokens(uint amount) public payable timeConstraint {\n      //increment token balance for msg.sender in Token.sol\n      require(queue.getFirst() == msg.sender && queue.qsize() > 1);\n\n      uint paidWei = msg.value;\n      if (amount <= paidWei * rate) {\n          tokensSold += amount;\n          token.addToBalance(msg.sender, amount);\n          totalFunds += paidWei;\n\n          Queue(queue).dequeue();\n\n          TokenPurchased(msg.sender);\n      }\n\n    }\n\n    function refundTokens(uint amount) public timeConstraint {\n      //decrement token balance for msg.sender in Token.sol\n      tokensSold -= amount;\n      token.removeFromBalance(msg.sender, amount);\n      uint returnWei = amount / rate;\n      msg.sender.transfer(returnWei);\n      totalFunds -= returnWei;\n      TokenSold(msg.sender);\n    }\n\n    function timeRemaining() view returns (uint) {\n      return endTime - now;\n    }\n\n    function sendOwnerFunds() ownerOnly {\n      require(now > endTime);\n      owner.transfer(totalFunds);\n    }\n\n  }\n",
  "sourcePath": "/Users/adityasrivastava/Documents/coding-projects/blockchain/dev-decal/sp18-midterm-p1/contracts/Crowdsale.sol",
  "compiler": {
    "name": "solc",
    "version": "0.4.19+commit.c4cbbb05.Emscripten.clang"
  },
  "schemaVersion": "1.0.1",
  "updatedAt": "2018-03-07T20:15:02.532Z"
}