{
  "contractName": "Crowdsale",
  "abi": [
    {
      "constant": true,
      "inputs": [],
      "name": "rate",
      "outputs": [
        {
          "name": "",
          "type": "uint256"
        }
      ],
      "payable": false,
      "stateMutability": "view",
      "type": "function"
    },
    {
      "constant": true,
      "inputs": [],
      "name": "endTime",
      "outputs": [
        {
          "name": "",
          "type": "uint256"
        }
      ],
      "payable": false,
      "stateMutability": "view",
      "type": "function"
    },
    {
      "constant": true,
      "inputs": [],
      "name": "initialTokens",
      "outputs": [
        {
          "name": "",
          "type": "uint256"
        }
      ],
      "payable": false,
      "stateMutability": "view",
      "type": "function"
    },
    {
      "constant": true,
      "inputs": [],
      "name": "tokensSold",
      "outputs": [
        {
          "name": "",
          "type": "uint256"
        }
      ],
      "payable": false,
      "stateMutability": "view",
      "type": "function"
    },
    {
      "constant": true,
      "inputs": [],
      "name": "startTime",
      "outputs": [
        {
          "name": "",
          "type": "uint256"
        }
      ],
      "payable": false,
      "stateMutability": "view",
      "type": "function"
    },
    {
      "constant": true,
      "inputs": [],
      "name": "owner",
      "outputs": [
        {
          "name": "",
          "type": "address"
        }
      ],
      "payable": false,
      "stateMutability": "view",
      "type": "function"
    },
    {
      "constant": true,
      "inputs": [],
      "name": "queue",
      "outputs": [
        {
          "name": "",
          "type": "address"
        }
      ],
      "payable": false,
      "stateMutability": "view",
      "type": "function"
    },
    {
      "constant": true,
      "inputs": [],
      "name": "token",
      "outputs": [
        {
          "name": "",
          "type": "address"
        }
      ],
      "payable": false,
      "stateMutability": "view",
      "type": "function"
    },
    {
      "inputs": [
        {
          "name": "_initialTokens",
          "type": "uint256"
        },
        {
          "name": "_rate",
          "type": "uint256"
        },
        {
          "name": "_duration",
          "type": "uint256"
        },
        {
          "name": "_queueTimecap",
          "type": "uint256"
        }
      ],
      "payable": false,
      "stateMutability": "nonpayable",
      "type": "constructor"
    },
    {
      "anonymous": false,
      "inputs": [
        {
          "indexed": false,
          "name": "buyer",
          "type": "address"
        }
      ],
      "name": "TokenPurchased",
      "type": "event"
    },
    {
      "anonymous": false,
      "inputs": [
        {
          "indexed": false,
          "name": "seller",
          "type": "address"
        }
      ],
      "name": "TokenSold",
      "type": "event"
    },
    {
      "constant": false,
      "inputs": [
        {
          "name": "amount",
          "type": "uint256"
        }
      ],
      "name": "mintTokens",
      "outputs": [],
      "payable": false,
      "stateMutability": "nonpayable",
      "type": "function"
    },
    {
      "constant": false,
      "inputs": [
        {
          "name": "amount",
          "type": "uint256"
        }
      ],
      "name": "burnTokens",
      "outputs": [],
      "payable": false,
      "stateMutability": "nonpayable",
      "type": "function"
    },
    {
      "constant": false,
      "inputs": [],
      "name": "enterQueue",
      "outputs": [],
      "payable": false,
      "stateMutability": "nonpayable",
      "type": "function"
    },
    {
      "constant": false,
      "inputs": [],
      "name": "checkTime",
      "outputs": [],
      "payable": false,
      "stateMutability": "nonpayable",
      "type": "function"
    },
    {
      "constant": false,
      "inputs": [],
      "name": "checkPlace",
      "outputs": [],
      "payable": false,
      "stateMutability": "nonpayable",
      "type": "function"
    },
    {
      "constant": false,
      "inputs": [
        {
          "name": "amount",
          "type": "uint256"
        }
      ],
      "name": "buyTokens",
      "outputs": [],
      "payable": true,
      "stateMutability": "payable",
      "type": "function"
    },
    {
      "constant": false,
      "inputs": [
        {
          "name": "amount",
          "type": "uint256"
        }
      ],
      "name": "refundTokens",
      "outputs": [],
      "payable": true,
      "stateMutability": "payable",
      "type": "function"
    },
    {
      "constant": true,
      "inputs": [],
      "name": "timeRemaining",
      "outputs": [
        {
          "name": "",
          "type": "uint256"
        }
      ],
      "payable": false,
      "stateMutability": "view",
      "type": "function"
    },
    {
      "constant": false,
      "inputs": [],
      "name": "sendOwnerFunds",
      "outputs": [],
      "payable": false,
      "stateMutability": "nonpayable",
      "type": "function"
    }
  ],
  "bytecode": "0x6060604052341561000f57600080fd5b6040516080806128f483398101604052808051906020019091908051906020019091908051906020019091908051906020019091905050336000806101000a81548173ffffffffffffffffffffffffffffffffffffffff021916908373ffffffffffffffffffffffffffffffffffffffff16021790555042600681905550816006540160078190555082600481905550836003819055506003546100b1610183565b80828152602001915050604051809103906000f08015156100d157600080fd5b600160006101000a81548173ffffffffffffffffffffffffffffffffffffffff021916908373ffffffffffffffffffffffffffffffffffffffff1602179055508061011a610193565b80828152602001915050604051809103906000f080151561013a57600080fd5b600260006101000a81548173ffffffffffffffffffffffffffffffffffffffff021916908373ffffffffffffffffffffffffffffffffffffffff160217905550505050506101a3565b604051610f7a8061116183390190565b604051610819806120db83390190565b610faf806101b26000396000f3006060604052600436106100f1576000357c0100000000000000000000000000000000000000000000000000000000900463ffffffff168063029073ad146100f65780632c4e722e1461010b5780633197cbb6146101345780633610724e1461015d57806350bfeadc14610175578063518ab2a81461019e5780635dfee9bb146101c75780636c4b6ba9146101df5780636d1b229d146101f457806378e97925146102175780638da5cb5b1461024057806397304ced14610295578063ad7d59fc146102b8578063e0c6190d146102cd578063e10d29ee146102e2578063e3cfef6014610337578063fc0c546a14610360575b600080fd5b341561010157600080fd5b6101096103b5565b005b341561011657600080fd5b61011e61055b565b6040518082815260200191505060405180910390f35b341561013f57600080fd5b610147610561565b6040518082815260200191505060405180910390f35b6101736004808035906020019091905050610567565b005b341561018057600080fd5b610188610925565b6040518082815260200191505060405180910390f35b34156101a957600080fd5b6101b161092b565b6040518082815260200191505060405180910390f35b6101dd6004808035906020019091905050610931565b005b34156101ea57600080fd5b6101f2610aff565b005b34156101ff57600080fd5b6102156004808035906020019091905050610bcf565b005b341561022257600080fd5b61022a610cd1565b6040518082815260200191505060405180910390f35b341561024b57600080fd5b610253610cd7565b604051808273ffffffffffffffffffffffffffffffffffffffff1673ffffffffffffffffffffffffffffffffffffffff16815260200191505060405180910390f35b34156102a057600080fd5b6102b66004808035906020019091905050610cfc565b005b34156102c357600080fd5b6102cb610dfe565b005b34156102d857600080fd5b6102e0610efe565b005b34156102ed57600080fd5b6102f5610f2b565b604051808273ffffffffffffffffffffffffffffffffffffffff1673ffffffffffffffffffffffffffffffffffffffff16815260200191505060405180910390f35b341561034257600080fd5b61034a610f51565b6040518082815260200191505060405180910390f35b341561036b57600080fd5b610373610f5d565b604051808273ffffffffffffffffffffffffffffffffffffffff1673ffffffffffffffffffffffffffffffffffffffff16815260200191505060405180910390f35b600654421180156103c7575060075442105b15156103d257600080fd5b6005600260009054906101000a900473ffffffffffffffffffffffffffffffffffffffff1673ffffffffffffffffffffffffffffffffffffffff16633e3c9eae6000604051602001526040518163ffffffff167c0100000000000000000000000000000000000000000000000000000000028152600401602060405180830381600087803b151561046257600080fd5b6102c65a03f1151561047357600080fd5b5050506040518051905010151561048957600080fd5b600260009054906101000a900473ffffffffffffffffffffffffffffffffffffffff1673ffffffffffffffffffffffffffffffffffffffff16638f807f6b336040518263ffffffff167c0100000000000000000000000000000000000000000000000000000000028152600401808273ffffffffffffffffffffffffffffffffffffffff1673ffffffffffffffffffffffffffffffffffffffff168152602001915050600060405180830381600087803b151561054557600080fd5b6102c65a03f1151561055657600080fd5b505050565b60045481565b60075481565b60006006544211801561057b575060075442105b151561058657600080fd5b3373ffffffffffffffffffffffffffffffffffffffff16600260009054906101000a900473ffffffffffffffffffffffffffffffffffffffff1673ffffffffffffffffffffffffffffffffffffffff16631e2231436000604051602001526040518163ffffffff167c0100000000000000000000000000000000000000000000000000000000028152600401602060405180830381600087803b151561062b57600080fd5b6102c65a03f1151561063c57600080fd5b5050506040518051905073ffffffffffffffffffffffffffffffffffffffff1614801561071157506001600260009054906101000a900473ffffffffffffffffffffffffffffffffffffffff1673ffffffffffffffffffffffffffffffffffffffff16633e3c9eae6000604051602001526040518163ffffffff167c0100000000000000000000000000000000000000000000000000000000028152600401602060405180830381600087803b15156106f457600080fd5b6102c65a03f1151561070557600080fd5b50505060405180519050115b151561071c57600080fd5b3490506004548102821115156109215781600860008282540192505081905550600160009054906101000a900473ffffffffffffffffffffffffffffffffffffffff1673ffffffffffffffffffffffffffffffffffffffff1663b08079a633846040518363ffffffff167c0100000000000000000000000000000000000000000000000000000000028152600401808373ffffffffffffffffffffffffffffffffffffffff1673ffffffffffffffffffffffffffffffffffffffff16815260200182815260200192505050600060405180830381600087803b151561080057600080fd5b6102c65a03f1151561081157600080fd5b50505080600560008282540192505081905550600260009054906101000a900473ffffffffffffffffffffffffffffffffffffffff1673ffffffffffffffffffffffffffffffffffffffff1663957908d16040518163ffffffff167c0100000000000000000000000000000000000000000000000000000000028152600401600060405180830381600087803b15156108a957600080fd5b6102c65a03f115156108ba57600080fd5b5050507f1b2bd3ab48c034c8c92c16a4cabb207b537fb695d6f7b9ef314f01cf69fe073b33604051808273ffffffffffffffffffffffffffffffffffffffff1673ffffffffffffffffffffffffffffffffffffffff16815260200191505060405180910390a15b5050565b60035481565b60085481565b600060065442118015610945575060075442105b151561095057600080fd5b81600860008282540392505081905550600160009054906101000a900473ffffffffffffffffffffffffffffffffffffffff1673ffffffffffffffffffffffffffffffffffffffff16632087bedd33846040518363ffffffff167c0100000000000000000000000000000000000000000000000000000000028152600401808373ffffffffffffffffffffffffffffffffffffffff1673ffffffffffffffffffffffffffffffffffffffff16815260200182815260200192505050600060405180830381600087803b1515610a2457600080fd5b6102c65a03f11515610a3557600080fd5b50505060045482811515610a4557fe5b0490503373ffffffffffffffffffffffffffffffffffffffff166108fc829081150290604051600060405180830381858888f193505050501515610a8857600080fd5b806005600082825403925050819055507fed99b7de8f6f61185f9b06294690179c033310b4f6bbdb1f95045cd113be403f33604051808273ffffffffffffffffffffffffffffffffffffffff1673ffffffffffffffffffffffffffffffffffffffff16815260200191505060405180910390a15050565b6000809054906101000a900473ffffffffffffffffffffffffffffffffffffffff1673ffffffffffffffffffffffffffffffffffffffff163373ffffffffffffffffffffffffffffffffffffffff16141515610b5a57600080fd5b60075442111515610b6a57600080fd5b6000809054906101000a900473ffffffffffffffffffffffffffffffffffffffff1673ffffffffffffffffffffffffffffffffffffffff166108fc6005549081150290604051600060405180830381858888f193505050501515610bcd57600080fd5b565b6000809054906101000a900473ffffffffffffffffffffffffffffffffffffffff1673ffffffffffffffffffffffffffffffffffffffff163373ffffffffffffffffffffffffffffffffffffffff16141515610c2a57600080fd5b600160009054906101000a900473ffffffffffffffffffffffffffffffffffffffff1673ffffffffffffffffffffffffffffffffffffffff1663b8cb65ee826040518263ffffffff167c010000000000000000000000000000000000000000000000000000000002815260040180828152602001915050600060405180830381600087803b1515610cba57600080fd5b6102c65a03f11515610ccb57600080fd5b50505050565b60065481565b6000809054906101000a900473ffffffffffffffffffffffffffffffffffffffff1681565b6000809054906101000a900473ffffffffffffffffffffffffffffffffffffffff1673ffffffffffffffffffffffffffffffffffffffff163373ffffffffffffffffffffffffffffffffffffffff16141515610d5757600080fd5b600160009054906101000a900473ffffffffffffffffffffffffffffffffffffffff1673ffffffffffffffffffffffffffffffffffffffff1663c6ed8990826040518263ffffffff167c010000000000000000000000000000000000000000000000000000000002815260040180828152602001915050600060405180830381600087803b1515610de757600080fd5b6102c65a03f11515610df857600080fd5b50505050565b60065442118015610e10575060075442105b1515610e1b57600080fd5b600260009054906101000a900473ffffffffffffffffffffffffffffffffffffffff1673ffffffffffffffffffffffffffffffffffffffff16636b4cc50b336000604051602001526040518263ffffffff167c0100000000000000000000000000000000000000000000000000000000028152600401808273ffffffffffffffffffffffffffffffffffffffff1673ffffffffffffffffffffffffffffffffffffffff168152602001915050602060405180830381600087803b1515610ee057600080fd5b6102c65a03f11515610ef157600080fd5b5050506040518051905050565b60065442118015610f10575060075442105b1515610f1b57600080fd5b600260009054906101000a905050565b600260009054906101000a900473ffffffffffffffffffffffffffffffffffffffff1681565b60004260075403905090565b600160009054906101000a900473ffffffffffffffffffffffffffffffffffffffff16815600a165627a7a72305820cbf3db4280db9cb4d5b51ca4a7eb696f1760fb94b094195dcf8aadd434a7a39500296060604052341561000f57600080fd5b604051602080610f7a833981016040528080519060200190919050508060028190555050610f38806100426000396000f3006060604052600436106100a4576000357c0100000000000000000000000000000000000000000000000000000000900463ffffffff168063095ea7b3146100a95780632087bedd1461010357806323b872dd1461014557806370a08231146101be5780639dc29fac1461020b578063a9059cbb14610265578063b08079a6146102bf578063b8cb65ee14610301578063c6ed899014610324578063dd62ed3e14610347575b600080fd5b34156100b457600080fd5b6100e9600480803573ffffffffffffffffffffffffffffffffffffffff169060200190919080359060200190919050506103b3565b604051808215151515815260200191505060405180910390f35b341561010e57600080fd5b610143600480803573ffffffffffffffffffffffffffffffffffffffff169060200190919080359060200190919050506104a5565b005b341561015057600080fd5b6101a4600480803573ffffffffffffffffffffffffffffffffffffffff1690602001909190803573ffffffffffffffffffffffffffffffffffffffff16906020019091908035906020019091905050610533565b604051808215151515815260200191505060405180910390f35b34156101c957600080fd5b6101f5600480803573ffffffffffffffffffffffffffffffffffffffff1690602001909190505061089e565b6040518082815260200191505060405180910390f35b341561021657600080fd5b61024b600480803573ffffffffffffffffffffffffffffffffffffffff169060200190919080359060200190919050506108e6565b604051808215151515815260200191505060405180910390f35b341561027057600080fd5b6102a5600480803573ffffffffffffffffffffffffffffffffffffffff16906020019091908035906020019091905050610bb8565b604051808215151515815260200191505060405180910390f35b34156102ca57600080fd5b6102ff600480803573ffffffffffffffffffffffffffffffffffffffff16906020019091908035906020019091905050610d96565b005b341561030c57600080fd5b6103226004808035906020019091905050610e24565b005b341561032f57600080fd5b6103456004808035906020019091905050610e39565b005b341561035257600080fd5b61039d600480803573ffffffffffffffffffffffffffffffffffffffff1690602001909190803573ffffffffffffffffffffffffffffffffffffffff16906020019091905050610e4e565b6040518082815260200191505060405180910390f35b600081600160003373ffffffffffffffffffffffffffffffffffffffff1673ffffffffffffffffffffffffffffffffffffffff16815260200190815260200160002060008573ffffffffffffffffffffffffffffffffffffffff1673ffffffffffffffffffffffffffffffffffffffff168152602001908152602001600020819055508273ffffffffffffffffffffffffffffffffffffffff163373ffffffffffffffffffffffffffffffffffffffff167f8c5be1e5ebec7d5bd14f71427d1e84f3dd0314c0f7b2291e5b200ac8c7c3b925846040518082815260200191505060405180910390a36001905092915050565b6104ed6000808473ffffffffffffffffffffffffffffffffffffffff1673ffffffffffffffffffffffffffffffffffffffff1681526020019081526020016000205482610ed5565b6000808473ffffffffffffffffffffffffffffffffffffffff1673ffffffffffffffffffffffffffffffffffffffff168152602001908152602001600020819055505050565b6000816000808673ffffffffffffffffffffffffffffffffffffffff1673ffffffffffffffffffffffffffffffffffffffff1681526020019081526020016000205410806105fc575081600160008673ffffffffffffffffffffffffffffffffffffffff1673ffffffffffffffffffffffffffffffffffffffff16815260200190815260200160002060003373ffffffffffffffffffffffffffffffffffffffff1673ffffffffffffffffffffffffffffffffffffffff16815260200190815260200160002054105b1561060a5760009050610897565b6106526000808673ffffffffffffffffffffffffffffffffffffffff1673ffffffffffffffffffffffffffffffffffffffff1681526020019081526020016000205483610ed5565b6000808673ffffffffffffffffffffffffffffffffffffffff1673ffffffffffffffffffffffffffffffffffffffff1681526020019081526020016000208190555061071a600160008673ffffffffffffffffffffffffffffffffffffffff1673ffffffffffffffffffffffffffffffffffffffff16815260200190815260200160002060003373ffffffffffffffffffffffffffffffffffffffff1673ffffffffffffffffffffffffffffffffffffffff1681526020019081526020016000205483610ed5565b600160008673ffffffffffffffffffffffffffffffffffffffff1673ffffffffffffffffffffffffffffffffffffffff16815260200190815260200160002060003373ffffffffffffffffffffffffffffffffffffffff1673ffffffffffffffffffffffffffffffffffffffff168152602001908152602001600020819055506107e26000808573ffffffffffffffffffffffffffffffffffffffff1673ffffffffffffffffffffffffffffffffffffffff1681526020019081526020016000205483610eee565b6000808573ffffffffffffffffffffffffffffffffffffffff1673ffffffffffffffffffffffffffffffffffffffff168152602001908152602001600020600082825403925050819055508273ffffffffffffffffffffffffffffffffffffffff168473ffffffffffffffffffffffffffffffffffffffff167fddf252ad1be2c89b69c2b068fc378daa952ba7f163c4a11628f55a4df523b3ef846040518082815260200191505060405180910390a3600190505b9392505050565b60008060008373ffffffffffffffffffffffffffffffffffffffff1673ffffffffffffffffffffffffffffffffffffffff168152602001908152602001600020549050919050565b6000816000808573ffffffffffffffffffffffffffffffffffffffff1673ffffffffffffffffffffffffffffffffffffffff1681526020019081526020016000205410806109af575081600160008573ffffffffffffffffffffffffffffffffffffffff1673ffffffffffffffffffffffffffffffffffffffff16815260200190815260200160002060003373ffffffffffffffffffffffffffffffffffffffff1673ffffffffffffffffffffffffffffffffffffffff16815260200190815260200160002054105b156109bd5760009050610bb2565b610a056000808573ffffffffffffffffffffffffffffffffffffffff1673ffffffffffffffffffffffffffffffffffffffff1681526020019081526020016000205483610ed5565b6000808573ffffffffffffffffffffffffffffffffffffffff1673ffffffffffffffffffffffffffffffffffffffff16815260200190815260200160002081905550610acd600160008573ffffffffffffffffffffffffffffffffffffffff1673ffffffffffffffffffffffffffffffffffffffff16815260200190815260200160002060003373ffffffffffffffffffffffffffffffffffffffff1673ffffffffffffffffffffffffffffffffffffffff1681526020019081526020016000205483610ed5565b600160008573ffffffffffffffffffffffffffffffffffffffff1673ffffffffffffffffffffffffffffffffffffffff16815260200190815260200160002060003373ffffffffffffffffffffffffffffffffffffffff1673ffffffffffffffffffffffffffffffffffffffff16815260200190815260200160002081905550610b5960025483610ed5565b6002819055508273ffffffffffffffffffffffffffffffffffffffff167fcc16f5dbb4873280815c1ee09dbd06736cffcc184412cf7a71a0fdb75d397ca5836040518082815260200191505060405180910390a2600190505b92915050565b6000816000803373ffffffffffffffffffffffffffffffffffffffff1673ffffffffffffffffffffffffffffffffffffffff168152602001908152602001600020541015610c095760009050610d90565b610c516000803373ffffffffffffffffffffffffffffffffffffffff1673ffffffffffffffffffffffffffffffffffffffff1681526020019081526020016000205483610ed5565b6000803373ffffffffffffffffffffffffffffffffffffffff1673ffffffffffffffffffffffffffffffffffffffff16815260200190815260200160002081905550610cdb6000808573ffffffffffffffffffffffffffffffffffffffff1673ffffffffffffffffffffffffffffffffffffffff1681526020019081526020016000205483610eee565b6000808573ffffffffffffffffffffffffffffffffffffffff1673ffffffffffffffffffffffffffffffffffffffff168152602001908152602001600020600082825403925050819055508273ffffffffffffffffffffffffffffffffffffffff163373ffffffffffffffffffffffffffffffffffffffff167fddf252ad1be2c89b69c2b068fc378daa952ba7f163c4a11628f55a4df523b3ef846040518082815260200191505060405180910390a3600190505b92915050565b610dde6000808473ffffffffffffffffffffffffffffffffffffffff1673ffffffffffffffffffffffffffffffffffffffff1681526020019081526020016000205482610eee565b6000808473ffffffffffffffffffffffffffffffffffffffff1673ffffffffffffffffffffffffffffffffffffffff168152602001908152602001600020819055505050565b610e3060025482610ed5565b60028190555050565b610e4560025482610eee565b60028190555050565b6000600160008473ffffffffffffffffffffffffffffffffffffffff1673ffffffffffffffffffffffffffffffffffffffff16815260200190815260200160002060008373ffffffffffffffffffffffffffffffffffffffff1673ffffffffffffffffffffffffffffffffffffffff16815260200190815260200160002054905092915050565b6000828211151515610ee357fe5b818303905092915050565b6000808284019050838110151515610f0257fe5b80915050929150505600a165627a7a72305820f8c10ea2df64289d6f564973dc8a076fe61a3d267501cddcf425b933cb5219680029606060405260056000806101000a81548160ff021916908360ff16021790555060006001556000600255341561003457600080fd5b6040516020806108198339810160405280805190602001909190505080600681905550506107b2806100676000396000f30060606040526004361061008e576000357c0100000000000000000000000000000000000000000000000000000000900463ffffffff1680631e223143146100935780633e3c9eae146100e85780636b4cc50b14610111578063756c0e771461015e5780638f807f6b14610187578063957908d1146101c0578063e0c6190d146101d5578063f2a75fe4146101ea575b600080fd5b341561009e57600080fd5b6100a6610217565b604051808273ffffffffffffffffffffffffffffffffffffffff1673ffffffffffffffffffffffffffffffffffffffff16815260200191505060405180910390f35b34156100f357600080fd5b6100fb61026f565b6040518082815260200191505060405180910390f35b341561011c57600080fd5b610148600480803573ffffffffffffffffffffffffffffffffffffffff169060200190919050506102ab565b6040518082815260200191505060405180910390f35b341561016957600080fd5b610171610336565b6040518082815260200191505060405180910390f35b341561019257600080fd5b6101be600480803573ffffffffffffffffffffffffffffffffffffffff1690602001909190505061033c565b005b34156101cb57600080fd5b6101d36104ce565b005b34156101e057600080fd5b6101e861061d565b005b34156101f557600080fd5b6101fd610778565b604051808215151515815260200191505060405180910390f35b600080600061022461026f565b141561022f5761026b565b60036000600154815260200190815260200160002060009054906101000a900473ffffffffffffffffffffffffffffffffffffffff1690508091505b5090565b6000600154600254101561029e576001546000809054906101000a900460ff1660ff16600254010390506102a8565b6001546002540390505b90565b600080600460008473ffffffffffffffffffffffffffffffffffffffff1673ffffffffffffffffffffffffffffffffffffffff16815260200190815260200160002054905060008114156102fe57610330565b600154811015156103155760015481039150610330565b6001546000809054906101000a900460ff1660ff1682010391505b50919050565b60065481565b6000809054906101000a900460ff1660ff1661035661026f565b1415610361576104cb565b8060036000600254815260200190815260200160002060006101000a81548173ffffffffffffffffffffffffffffffffffffffff021916908373ffffffffffffffffffffffffffffffffffffffff160217905550600254600460003373ffffffffffffffffffffffffffffffffffffffff1673ffffffffffffffffffffffffffffffffffffffff168152602001908152602001600020819055507f67c9f2370687c002c73cdf82225aca9868ec476aa197c7fcef300216c5abb29c81604051808273ffffffffffffffffffffffffffffffffffffffff1673ffffffffffffffffffffffffffffffffffffffff16815260200191505060405180910390a142600560003373ffffffffffffffffffffffffffffffffffffffff1673ffffffffffffffffffffffffffffffffffffffff168152602001908152602001600020819055506000809054906101000a900460ff1660ff166001600254018115156104c357fe5b066002819055505b50565b60006104d861026f565b14156104e35761061b565b7ff961710e06f7076853cdcc4491e134553e9d28de2bb1329a894dd7d41edfe09160036000600154815260200190815260200160002060009054906101000a900473ffffffffffffffffffffffffffffffffffffffff16604051808273ffffffffffffffffffffffffffffffffffffffff1673ffffffffffffffffffffffffffffffffffffffff16815260200191505060405180910390a16004600060036000600154815260200190815260200160002060009054906101000a900473ffffffffffffffffffffffffffffffffffffffff1673ffffffffffffffffffffffffffffffffffffffff1673ffffffffffffffffffffffffffffffffffffffff168152602001908152602001600020600090556000809054906101000a900460ff1660ff16600180540181151561061357fe5b066001819055505b565b60008060036000600154815260200190815260200160002060009054906101000a900473ffffffffffffffffffffffffffffffffffffffff169150600560008373ffffffffffffffffffffffffffffffffffffffff1673ffffffffffffffffffffffffffffffffffffffff168152602001908152602001600020544203905060065481111561077457600460008373ffffffffffffffffffffffffffffffffffffffff1673ffffffffffffffffffffffffffffffffffffffff168152602001908152602001600020600090556000809054906101000a900460ff1660ff16600180540181151561070957fe5b066001819055507ff961710e06f7076853cdcc4491e134553e9d28de2bb1329a894dd7d41edfe09182604051808273ffffffffffffffffffffffffffffffffffffffff1673ffffffffffffffffffffffffffffffffffffffff16815260200191505060405180910390a15b5050565b6000600154600254149050905600a165627a7a72305820078a7d8866eed8b3c9392469f38a4f5244316b5b11df7b36e6964bd04f46d8b00029",
  "source": "pragma solidity ^0.4.15;\r\n\r\nimport './Queue.sol';\r\nimport './Token.sol';\r\n\r\n /**\r\n  * @title Crowdsale\r\n  * @dev Contract that deploys `Token.sol`\r\n  * Is timelocked, manages buyer queue, updates balances on `Token.sol`\r\n  */\r\n\r\n  contract Crowdsale {\r\n\r\n    address public owner;\r\n    Token public token;\r\n    Queue public queue;\r\n    uint public initialTokens;\r\n    uint public rate;\r\n    uint private totalFunds;\r\n    uint public startTime;\r\n    uint public endTime;\r\n    uint public tokensSold;\r\n\r\n    modifier ownerOnly() {\r\n      require(msg.sender == owner);\r\n      _;\r\n    }\r\n\r\n    modifier timeConstraint() {\r\n        require(now > startTime && now < endTime);\r\n        _;\r\n    }\r\n\r\n    event TokenPurchased(address buyer);\r\n    event TokenSold(address seller);\r\n\r\n    function Crowdsale(uint _initialTokens, uint _rate, uint _duration, uint _queueTimecap) {\r\n      owner = msg.sender;\r\n      startTime = now;\r\n      endTime = startTime + _duration;\r\n      rate = _rate;\r\n      initialTokens = _initialTokens;\r\n      token = new Token(initialTokens);\r\n      queue = new Queue(_queueTimecap);\r\n\r\n    }\r\n\r\n    function mintTokens(uint amount) ownerOnly {\r\n      //add to totalSupply in Token.sol\r\n      token.addTokens(amount);\r\n    }\r\n\r\n    function burnTokens(uint amount) ownerOnly {\r\n      //subtract from totalSupply in Token.sol\r\n      token.removeTokens(amount);\r\n    }\r\n\r\n    function enterQueue() timeConstraint {\r\n        require(queue.qsize() < 5);\r\n        queue.enqueue(msg.sender);\r\n    }\r\n\r\n    function checkTime() timeConstraint {\r\n        queue.checkTime;\r\n    }\r\n\r\n    function checkPlace() timeConstraint {\r\n        queue.checkPlace(msg.sender);\r\n    }\r\n\r\n    function buyTokens(uint amount) public payable timeConstraint {\r\n      //increment token balance for msg.sender in Token.sol\r\n      require(queue.getFirst() == msg.sender && queue.qsize() > 1);\r\n\r\n      uint paidWei = msg.value;\r\n      if (amount <= paidWei * rate) {\r\n          tokensSold += amount;\r\n          token.addToBalance(msg.sender, amount);\r\n          totalFunds += paidWei;\r\n\r\n          Queue(queue).dequeue();\r\n\r\n          TokenPurchased(msg.sender);\r\n      }\r\n\r\n    }\r\n\r\n    function refundTokens(uint amount) public payable timeConstraint {\r\n      //decrement token balance for msg.sender in Token.sol\r\n      tokensSold -= amount;\r\n      token.removeFromBalance(msg.sender, amount);\r\n      uint returnWei = amount / rate;\r\n      msg.sender.transfer(returnWei);\r\n      totalFunds -= returnWei;\r\n      TokenSold(msg.sender);\r\n    }\r\n\r\n    function timeRemaining() view returns (uint) {\r\n      return endTime - now;\r\n    }\r\n\r\n    function sendOwnerFunds() ownerOnly {\r\n      require(now > endTime);\r\n      owner.transfer(totalFunds);\r\n    }\r\n\r\n  }\r\n",
  "sourcePath": "C:\\Users\\PolarBear2\\Project\\testing\\contracts\\Crowdsale.sol",
  "compiler": {
    "name": "solc",
    "version": "0.4.19+commit.c4cbbb05.Emscripten.clang"
  },
  "schemaVersion": "1.0.1",
  "updatedAt": "2018-03-08T23:07:01.542Z"
}