{
  "contractName": "Queue",
  "abi": [
    {
      "constant": true,
      "inputs": [],
      "name": "timeCap",
      "outputs": [
        {
          "name": "",
          "type": "uint256"
        }
      ],
      "payable": false,
      "stateMutability": "view",
      "type": "function"
    },
    {
      "inputs": [
        {
          "name": "_timeCap",
          "type": "uint256"
        }
      ],
      "payable": false,
      "stateMutability": "nonpayable",
      "type": "constructor"
    },
    {
      "anonymous": false,
      "inputs": [
        {
          "indexed": false,
          "name": "removedQueueAdress",
          "type": "address"
        }
      ],
      "name": "QueueRemoved",
      "type": "event"
    },
    {
      "anonymous": false,
      "inputs": [
        {
          "indexed": false,
          "name": "addedQueueAdress",
          "type": "address"
        }
      ],
      "name": "QueueAdded",
      "type": "event"
    },
    {
      "constant": true,
      "inputs": [],
      "name": "qsize",
      "outputs": [
        {
          "name": "",
          "type": "uint256"
        }
      ],
      "payable": false,
      "stateMutability": "view",
      "type": "function"
    },
    {
      "constant": true,
      "inputs": [],
      "name": "empty",
      "outputs": [
        {
          "name": "",
          "type": "bool"
        }
      ],
      "payable": false,
      "stateMutability": "view",
      "type": "function"
    },
    {
      "constant": false,
      "inputs": [],
      "name": "getFirst",
      "outputs": [
        {
          "name": "",
          "type": "address"
        }
      ],
      "payable": false,
      "stateMutability": "nonpayable",
      "type": "function"
    },
    {
      "constant": true,
      "inputs": [
        {
          "name": "sender",
          "type": "address"
        }
      ],
      "name": "checkPlace",
      "outputs": [
        {
          "name": "",
          "type": "uint256"
        }
      ],
      "payable": false,
      "stateMutability": "view",
      "type": "function"
    },
    {
      "constant": false,
      "inputs": [],
      "name": "checkTime",
      "outputs": [],
      "payable": false,
      "stateMutability": "nonpayable",
      "type": "function"
    },
    {
      "constant": false,
      "inputs": [],
      "name": "dequeue",
      "outputs": [],
      "payable": false,
      "stateMutability": "nonpayable",
      "type": "function"
    },
    {
      "constant": false,
      "inputs": [
        {
          "name": "addr",
          "type": "address"
        }
      ],
      "name": "enqueue",
      "outputs": [],
      "payable": false,
      "stateMutability": "nonpayable",
      "type": "function"
    }
  ],
  "bytecode": "0x606060405260056000806101000a81548160ff021916908360ff16021790555060006001556000600255341561003457600080fd5b6040516020806108198339810160405280805190602001909190505080600681905550506107b2806100676000396000f30060606040526004361061008e576000357c0100000000000000000000000000000000000000000000000000000000900463ffffffff1680631e223143146100935780633e3c9eae146100e85780636b4cc50b14610111578063756c0e771461015e5780638f807f6b14610187578063957908d1146101c0578063e0c6190d146101d5578063f2a75fe4146101ea575b600080fd5b341561009e57600080fd5b6100a6610217565b604051808273ffffffffffffffffffffffffffffffffffffffff1673ffffffffffffffffffffffffffffffffffffffff16815260200191505060405180910390f35b34156100f357600080fd5b6100fb61026f565b6040518082815260200191505060405180910390f35b341561011c57600080fd5b610148600480803573ffffffffffffffffffffffffffffffffffffffff169060200190919050506102ab565b6040518082815260200191505060405180910390f35b341561016957600080fd5b610171610336565b6040518082815260200191505060405180910390f35b341561019257600080fd5b6101be600480803573ffffffffffffffffffffffffffffffffffffffff1690602001909190505061033c565b005b34156101cb57600080fd5b6101d36104ce565b005b34156101e057600080fd5b6101e861061d565b005b34156101f557600080fd5b6101fd610778565b604051808215151515815260200191505060405180910390f35b600080600061022461026f565b141561022f5761026b565b60036000600154815260200190815260200160002060009054906101000a900473ffffffffffffffffffffffffffffffffffffffff1690508091505b5090565b6000600154600254101561029e576001546000809054906101000a900460ff1660ff16600254010390506102a8565b6001546002540390505b90565b600080600460008473ffffffffffffffffffffffffffffffffffffffff1673ffffffffffffffffffffffffffffffffffffffff16815260200190815260200160002054905060008114156102fe57610330565b600154811015156103155760015481039150610330565b6001546000809054906101000a900460ff1660ff1682010391505b50919050565b60065481565b6000809054906101000a900460ff1660ff1661035661026f565b1415610361576104cb565b8060036000600254815260200190815260200160002060006101000a81548173ffffffffffffffffffffffffffffffffffffffff021916908373ffffffffffffffffffffffffffffffffffffffff160217905550600254600460003373ffffffffffffffffffffffffffffffffffffffff1673ffffffffffffffffffffffffffffffffffffffff168152602001908152602001600020819055507f67c9f2370687c002c73cdf82225aca9868ec476aa197c7fcef300216c5abb29c81604051808273ffffffffffffffffffffffffffffffffffffffff1673ffffffffffffffffffffffffffffffffffffffff16815260200191505060405180910390a142600560003373ffffffffffffffffffffffffffffffffffffffff1673ffffffffffffffffffffffffffffffffffffffff168152602001908152602001600020819055506000809054906101000a900460ff1660ff166001600254018115156104c357fe5b066002819055505b50565b60006104d861026f565b14156104e35761061b565b7ff961710e06f7076853cdcc4491e134553e9d28de2bb1329a894dd7d41edfe09160036000600154815260200190815260200160002060009054906101000a900473ffffffffffffffffffffffffffffffffffffffff16604051808273ffffffffffffffffffffffffffffffffffffffff1673ffffffffffffffffffffffffffffffffffffffff16815260200191505060405180910390a16004600060036000600154815260200190815260200160002060009054906101000a900473ffffffffffffffffffffffffffffffffffffffff1673ffffffffffffffffffffffffffffffffffffffff1673ffffffffffffffffffffffffffffffffffffffff168152602001908152602001600020600090556000809054906101000a900460ff1660ff16600180540181151561061357fe5b066001819055505b565b60008060036000600154815260200190815260200160002060009054906101000a900473ffffffffffffffffffffffffffffffffffffffff169150600560008373ffffffffffffffffffffffffffffffffffffffff1673ffffffffffffffffffffffffffffffffffffffff168152602001908152602001600020544203905060065481111561077457600460008373ffffffffffffffffffffffffffffffffffffffff1673ffffffffffffffffffffffffffffffffffffffff168152602001908152602001600020600090556000809054906101000a900460ff1660ff16600180540181151561070957fe5b066001819055507ff961710e06f7076853cdcc4491e134553e9d28de2bb1329a894dd7d41edfe09182604051808273ffffffffffffffffffffffffffffffffffffffff1673ffffffffffffffffffffffffffffffffffffffff16815260200191505060405180910390a15b5050565b6000600154600254149050905600a165627a7a72305820d730045054acd4da12dd1303533ee0c11594c3877aea31a154a5826e9955c1950029",
  "source": "pragma solidity ^0.4.15;\n\n/**\n * @title Queue\n * @dev Data structure contract used in `Crowdsale.sol`\n * Allows buyers to Queue(queue) up on a first-in-first-out basis\n * See this example: http://interactivepython.org/courselib/static/pythonds/BasicDS/ImplementingaQueueinPython.html\n */\n\n\n/** Beginning and Ending Index;\n[01234]\n\n[X____] add first one: beginning = 0; ending =1;\n[XXX__] add three time: beginning = 0; ending = 3;\n[_XX__] delete first one: beginning = 1; ending =3;\n[__X__] delete second one: 2 | 3;\n[__XX_] add one more: 2 | 4;\n[__XXX] add one more: 2 | 5 > 0;\n[X_XXX] add one more: 2 | 1;\n[XXXXX] add one more: 2 | 2;\n[_____] delete all: 2>3>4>5(0)>1 | 2;\n\nsize:\n--- (if ending > beginning) ending - beginning;\n--- ( if ending < beginning) ending + 5 - beginning;\n--- same number = no item;\n\n\n*/\n\ncontract Queue {\n\t/* State variables */\n\tuint8 size = 5;\n\tuint beginningIndex = 0;\n\tuint endingIndex = 0;\n\tmapping(uint => address) indexToAddress;\n\tmapping(address => uint) addressToIndex;\n\tmapping(address => uint) addressToTimeConsumed;\n\tuint public timeCap;\n\n\t/* Add events */\n\tevent QueueRemoved(address removedQueueAdress);\n\tevent QueueAdded(address addedQueueAdress);\n\n\t/* Add constructor */\n\t// [Later]\n\tfunction Queue(uint _timeCap) {\n\t\ttimeCap = _timeCap;\n\t}\n\n\t/* Returns the number of people waiting in Queue(queue) */\n\tfunction qsize() public constant returns (uint) {\n\t\tif (endingIndex < beginningIndex) {\n\t\t\treturn endingIndex + size - beginningIndex;\n\t\t} else {\n\t\t\t// also handle if 0 size here;\n\t\t\treturn endingIndex - beginningIndex;\n\t\t}\n\t}\n\n\t/* Returns whether the queue is empty or not */\n\tfunction empty() constant returns(bool) {\n\t\treturn endingIndex == beginningIndex;\n\t}\n\n\t/* Returns the address of the person in the front of the queue */\n\tfunction getFirst() returns(address) {\n\t\tif (qsize() == 0) {\n\t\t\treturn;\n\t\t}\n\t\taddress res = indexToAddress[beginningIndex];\n\t\t//dequeue();\n\t\treturn res;\n\t}\n\n\t/* Allows `msg.sender` to check their position in the queue */\n\tfunction checkPlace(address sender) constant returns(uint) {\n\t\tuint indexPosition = addressToIndex[sender];\n\t\tif (indexPosition == 0) {\n\t\t\treturn;\n\t\t} else if (indexPosition >= beginningIndex) {\n\t\t\treturn indexPosition - beginningIndex;\n\t\t} else {\n\t\t\treturn indexPosition + size - beginningIndex;\n\t\t}\n\n\t}\n\n\t/* Allows anyone to expel the first person in Queue(queue) if their time\n\t * limit is up\n\t */\n\tfunction checkTime() {\n\n\t\t\taddress currentAddress = indexToAddress[beginningIndex];\n\t\t\tuint currentTimeConsumed = now - addressToTimeConsumed[currentAddress];\n\n\t\t\tif (currentTimeConsumed > timeCap) {\n\t\t\t\tdelete addressToIndex[currentAddress];\n\t\t\t\tbeginningIndex = (beginningIndex + 1) % size;\n\t\t\t\tQueueRemoved(currentAddress);\n\t\t\t}\n\n\t}\n\n\t/* Removes the first person in Queue(queue); either when their time is up or when\n\t * they are done with their purchase\n\t */\n\tfunction dequeue() {\n\t\tif (qsize() == 0) {\n\t\t\treturn;\n\t\t}\n\t\tQueueRemoved(indexToAddress[beginningIndex]);\n\t\tdelete addressToIndex[indexToAddress[beginningIndex]];\n\t\tbeginningIndex = (beginningIndex + 1) % size;\n\n\t}\n\n\t/* Places `addr` in the first empty position in the queue */\n\tfunction enqueue(address addr) {\n\n\t\t// if the queue is already full, don't do it.\n\t\tif (qsize() == size) {\n\t\t\treturn;\n\t\t}\n\t\tindexToAddress[endingIndex] = addr;\n\t\taddressToIndex[msg.sender] = endingIndex;\n\t\tQueueAdded(addr);\n\t\taddressToTimeConsumed[msg.sender] = now;\n\t\tendingIndex = (endingIndex + 1) % size;\n\t}\n}\n",
  "sourcePath": "/Users/adityasrivastava/Documents/coding-projects/blockchain/dev-decal/sp18-midterm-p1/contracts/Queue.sol",
  "compiler": {
    "name": "solc",
    "version": "0.4.19+commit.c4cbbb05.Emscripten.clang"
  },
  "schemaVersion": "1.0.1",
  "updatedAt": "2018-03-08T23:23:56.952Z"
}