{
  "contractName": "Queue",
  "abi": [
    {
      "constant": true,
      "inputs": [],
      "name": "timeCap",
      "outputs": [
        {
          "name": "",
          "type": "uint256"
        }
      ],
      "payable": false,
      "stateMutability": "view",
      "type": "function"
    },
    {
      "inputs": [
        {
          "name": "_timeCap",
          "type": "uint256"
        }
      ],
      "payable": false,
      "stateMutability": "nonpayable",
      "type": "constructor"
    },
    {
      "anonymous": false,
      "inputs": [
        {
          "indexed": false,
          "name": "removedQueueAdress",
          "type": "address"
        }
      ],
      "name": "QueueRemoved",
      "type": "event"
    },
    {
      "anonymous": false,
      "inputs": [
        {
          "indexed": false,
          "name": "addedQueueAdress",
          "type": "address"
        }
      ],
      "name": "QueueAdded",
      "type": "event"
    },
    {
      "constant": true,
      "inputs": [],
      "name": "qsize",
      "outputs": [
        {
          "name": "",
          "type": "uint256"
        }
      ],
      "payable": false,
      "stateMutability": "view",
      "type": "function"
    },
    {
      "constant": true,
      "inputs": [],
      "name": "empty",
      "outputs": [
        {
          "name": "",
          "type": "bool"
        }
      ],
      "payable": false,
      "stateMutability": "view",
      "type": "function"
    },
    {
      "constant": false,
      "inputs": [],
      "name": "getFirst",
      "outputs": [
        {
          "name": "",
          "type": "address"
        }
      ],
      "payable": false,
      "stateMutability": "nonpayable",
      "type": "function"
    },
    {
      "constant": true,
      "inputs": [
        {
          "name": "sender",
          "type": "address"
        }
      ],
      "name": "checkPlace",
      "outputs": [
        {
          "name": "",
          "type": "uint256"
        }
      ],
      "payable": false,
      "stateMutability": "view",
      "type": "function"
    },
    {
      "constant": false,
      "inputs": [],
      "name": "checkTime",
      "outputs": [],
      "payable": false,
      "stateMutability": "nonpayable",
      "type": "function"
    },
    {
      "constant": false,
      "inputs": [],
      "name": "dequeue",
      "outputs": [],
      "payable": false,
      "stateMutability": "nonpayable",
      "type": "function"
    },
    {
      "constant": false,
      "inputs": [
        {
          "name": "addr",
          "type": "address"
        }
      ],
      "name": "enqueue",
      "outputs": [],
      "payable": false,
      "stateMutability": "nonpayable",
      "type": "function"
    }
  ],
  "bytecode": "0x606060405260056000806101000a81548160ff021916908360ff16021790555060006001556000600255341561003457600080fd5b6040516020806108198339810160405280805190602001909190505080600681905550506107b2806100676000396000f30060606040526004361061008e576000357c0100000000000000000000000000000000000000000000000000000000900463ffffffff1680631e223143146100935780633e3c9eae146100e85780636b4cc50b14610111578063756c0e771461015e5780638f807f6b14610187578063957908d1146101c0578063e0c6190d146101d5578063f2a75fe4146101ea575b600080fd5b341561009e57600080fd5b6100a6610217565b604051808273ffffffffffffffffffffffffffffffffffffffff1673ffffffffffffffffffffffffffffffffffffffff16815260200191505060405180910390f35b34156100f357600080fd5b6100fb61026f565b6040518082815260200191505060405180910390f35b341561011c57600080fd5b610148600480803573ffffffffffffffffffffffffffffffffffffffff169060200190919050506102ab565b6040518082815260200191505060405180910390f35b341561016957600080fd5b610171610336565b6040518082815260200191505060405180910390f35b341561019257600080fd5b6101be600480803573ffffffffffffffffffffffffffffffffffffffff1690602001909190505061033c565b005b34156101cb57600080fd5b6101d36104ce565b005b34156101e057600080fd5b6101e861061d565b005b34156101f557600080fd5b6101fd610778565b604051808215151515815260200191505060405180910390f35b600080600061022461026f565b141561022f5761026b565b60036000600154815260200190815260200160002060009054906101000a900473ffffffffffffffffffffffffffffffffffffffff1690508091505b5090565b6000600154600254101561029e576001546000809054906101000a900460ff1660ff16600254010390506102a8565b6001546002540390505b90565b600080600460008473ffffffffffffffffffffffffffffffffffffffff1673ffffffffffffffffffffffffffffffffffffffff16815260200190815260200160002054905060008114156102fe57610330565b600154811015156103155760015481039150610330565b6001546000809054906101000a900460ff1660ff1682010391505b50919050565b60065481565b6000809054906101000a900460ff1660ff1661035661026f565b1415610361576104cb565b8060036000600254815260200190815260200160002060006101000a81548173ffffffffffffffffffffffffffffffffffffffff021916908373ffffffffffffffffffffffffffffffffffffffff160217905550600254600460003373ffffffffffffffffffffffffffffffffffffffff1673ffffffffffffffffffffffffffffffffffffffff168152602001908152602001600020819055507f67c9f2370687c002c73cdf82225aca9868ec476aa197c7fcef300216c5abb29c81604051808273ffffffffffffffffffffffffffffffffffffffff1673ffffffffffffffffffffffffffffffffffffffff16815260200191505060405180910390a142600560003373ffffffffffffffffffffffffffffffffffffffff1673ffffffffffffffffffffffffffffffffffffffff168152602001908152602001600020819055506000809054906101000a900460ff1660ff166001600254018115156104c357fe5b066002819055505b50565b60006104d861026f565b14156104e35761061b565b7ff961710e06f7076853cdcc4491e134553e9d28de2bb1329a894dd7d41edfe09160036000600154815260200190815260200160002060009054906101000a900473ffffffffffffffffffffffffffffffffffffffff16604051808273ffffffffffffffffffffffffffffffffffffffff1673ffffffffffffffffffffffffffffffffffffffff16815260200191505060405180910390a16004600060036000600154815260200190815260200160002060009054906101000a900473ffffffffffffffffffffffffffffffffffffffff1673ffffffffffffffffffffffffffffffffffffffff1673ffffffffffffffffffffffffffffffffffffffff168152602001908152602001600020600090556000809054906101000a900460ff1660ff16600180540181151561061357fe5b066001819055505b565b60008060036000600154815260200190815260200160002060009054906101000a900473ffffffffffffffffffffffffffffffffffffffff169150600560008373ffffffffffffffffffffffffffffffffffffffff1673ffffffffffffffffffffffffffffffffffffffff168152602001908152602001600020544203905060065481111561077457600460008373ffffffffffffffffffffffffffffffffffffffff1673ffffffffffffffffffffffffffffffffffffffff168152602001908152602001600020600090556000809054906101000a900460ff1660ff16600180540181151561070957fe5b066001819055507ff961710e06f7076853cdcc4491e134553e9d28de2bb1329a894dd7d41edfe09182604051808273ffffffffffffffffffffffffffffffffffffffff1673ffffffffffffffffffffffffffffffffffffffff16815260200191505060405180910390a15b5050565b6000600154600254149050905600a165627a7a72305820078a7d8866eed8b3c9392469f38a4f5244316b5b11df7b36e6964bd04f46d8b00029",
  "source": "pragma solidity ^0.4.15;\r\n\r\n/**\r\n * @title Queue\r\n * @dev Data structure contract used in `Crowdsale.sol`\r\n * Allows buyers to Queue(queue) up on a first-in-first-out basis\r\n * See this example: http://interactivepython.org/courselib/static/pythonds/BasicDS/ImplementingaQueueinPython.html\r\n */\r\n\r\n\r\n/** Beginning and Ending Index;\r\n[01234]\r\n\r\n[X____] add first one: beginning = 0; ending =1;\r\n[XXX__] add three time: beginning = 0; ending = 3;\r\n[_XX__] delete first one: beginning = 1; ending =3;\r\n[__X__] delete second one: 2 | 3;\r\n[__XX_] add one more: 2 | 4;\r\n[__XXX] add one more: 2 | 5 > 0;\r\n[X_XXX] add one more: 2 | 1;\r\n[XXXXX] add one more: 2 | 2;\r\n[_____] delete all: 2>3>4>5(0)>1 | 2;\r\n\r\nsize:\r\n--- (if ending > beginning) ending - beginning;\r\n--- ( if ending < beginning) ending + 5 - beginning;\r\n--- same number = no item;\r\n\r\n\r\n*/\r\n\r\ncontract Queue {\r\n\t/* State variables */\r\n\tuint8 size = 5;\r\n\tuint beginningIndex = 0;\r\n\tuint endingIndex = 0;\r\n\tmapping(uint => address) indexToAddress;\r\n\tmapping(address => uint) addressToIndex;\r\n\tmapping(address => uint) addressToTimeConsumed;\r\n\tuint public timeCap;\r\n\r\n\t/* Add events */\r\n\tevent QueueRemoved(address removedQueueAdress);\r\n\tevent QueueAdded(address addedQueueAdress);\r\n\r\n\t/* Add constructor */\r\n\t// [Later]\r\n\tfunction Queue(uint _timeCap) {\r\n\t\ttimeCap = _timeCap;\r\n\t}\r\n\r\n\t/* Returns the number of people waiting in Queue(queue) */\r\n\tfunction qsize() public constant returns (uint) {\r\n\t\tif (endingIndex < beginningIndex) {\r\n\t\t\treturn endingIndex + size - beginningIndex;\r\n\t\t} else {\r\n\t\t\t// also handle if 0 size here;\r\n\t\t\treturn endingIndex - beginningIndex;\r\n\t\t}\r\n\t}\r\n\r\n\t/* Returns whether the queue is empty or not */\r\n\tfunction empty() constant returns(bool) {\r\n\t\treturn endingIndex == beginningIndex;\r\n\t}\r\n\r\n\t/* Returns the address of the person in the front of the queue */\r\n\tfunction getFirst() returns(address) {\r\n\t\tif (qsize() == 0) {\r\n\t\t\treturn;\r\n\t\t}\r\n\t\taddress res = indexToAddress[beginningIndex];\r\n\t\t//dequeue();\r\n\t\treturn res;\r\n\t}\r\n\r\n\t/* Allows `msg.sender` to check their position in the queue */\r\n\tfunction checkPlace(address sender) constant returns(uint) {\r\n\t\tuint indexPosition = addressToIndex[sender];\r\n\t\tif (indexPosition == 0) {\r\n\t\t\treturn;\r\n\t\t} else if (indexPosition >= beginningIndex) {\r\n\t\t\treturn indexPosition - beginningIndex;\r\n\t\t} else {\r\n\t\t\treturn indexPosition + size - beginningIndex;\r\n\t\t}\r\n\r\n\t}\r\n\r\n\t/* Allows anyone to expel the first person in Queue(queue) if their time\r\n\t * limit is up\r\n\t */\r\n\tfunction checkTime() {\r\n\r\n\t\t\taddress currentAddress = indexToAddress[beginningIndex];\r\n\t\t\tuint currentTimeConsumed = now - addressToTimeConsumed[currentAddress];\r\n\r\n\t\t\tif (currentTimeConsumed > timeCap) {\r\n\t\t\t\tdelete addressToIndex[currentAddress];\r\n\t\t\t\tbeginningIndex = (beginningIndex + 1) % size;\r\n\t\t\t\tQueueRemoved(currentAddress);\r\n\t\t\t}\r\n\r\n\t}\r\n\r\n\t/* Removes the first person in Queue(queue); either when their time is up or when\r\n\t * they are done with their purchase\r\n\t */\r\n\tfunction dequeue() {\r\n\t\tif (qsize() == 0) {\r\n\t\t\treturn;\r\n\t\t}\r\n\t\tQueueRemoved(indexToAddress[beginningIndex]);\r\n\t\tdelete addressToIndex[indexToAddress[beginningIndex]];\r\n\t\tbeginningIndex = (beginningIndex + 1) % size;\r\n\r\n\t}\r\n\r\n\t/* Places `addr` in the first empty position in the queue */\r\n\tfunction enqueue(address addr) {\r\n\r\n\t\t// if the queue is already full, don't do it.\r\n\t\tif (qsize() == size) {\r\n\t\t\treturn;\r\n\t\t}\r\n\t\tindexToAddress[endingIndex] = addr;\r\n\t\taddressToIndex[msg.sender] = endingIndex;\r\n\t\tQueueAdded(addr);\r\n\t\taddressToTimeConsumed[msg.sender] = now;\r\n\t\tendingIndex = (endingIndex + 1) % size;\r\n\t}\r\n}\r\n",
  "sourcePath": "C:\\Users\\PolarBear2\\Project\\testing\\contracts\\Queue.sol",
  "compiler": {
    "name": "solc",
    "version": "0.4.19+commit.c4cbbb05.Emscripten.clang"
  },
  "schemaVersion": "1.0.1",
  "updatedAt": "2018-03-08T23:07:01.526Z"
}