{
  "contractName": "User",
  "abi": [
    {
      "inputs": [],
      "payable": true,
      "stateMutability": "payable",
      "type": "constructor"
    },
    {
      "payable": true,
      "stateMutability": "payable",
      "type": "fallback"
    },
    {
      "constant": false,
      "inputs": [],
      "name": "enterQueue",
      "outputs": [],
      "payable": false,
      "stateMutability": "nonpayable",
      "type": "function"
    },
    {
      "constant": false,
      "inputs": [],
      "name": "checkTime",
      "outputs": [],
      "payable": false,
      "stateMutability": "nonpayable",
      "type": "function"
    },
    {
      "constant": false,
      "inputs": [],
      "name": "checkPlace",
      "outputs": [],
      "payable": false,
      "stateMutability": "nonpayable",
      "type": "function"
    },
    {
      "constant": false,
      "inputs": [
        {
          "name": "amount",
          "type": "uint256"
        }
      ],
      "name": "buyTokens",
      "outputs": [],
      "payable": false,
      "stateMutability": "nonpayable",
      "type": "function"
    },
    {
      "constant": false,
      "inputs": [
        {
          "name": "amount",
          "type": "uint256"
        }
      ],
      "name": "refundTokens",
      "outputs": [],
      "payable": false,
      "stateMutability": "nonpayable",
      "type": "function"
    },
    {
      "constant": false,
      "inputs": [
        {
          "name": "rate",
          "type": "uint256"
        }
      ],
      "name": "setRate",
      "outputs": [],
      "payable": false,
      "stateMutability": "nonpayable",
      "type": "function"
    },
    {
      "constant": false,
      "inputs": [
        {
          "name": "crowdSale",
          "type": "address"
        }
      ],
      "name": "setTarget",
      "outputs": [],
      "payable": false,
      "stateMutability": "nonpayable",
      "type": "function"
    },
    {
      "constant": true,
      "inputs": [],
      "name": "getTargetRate",
      "outputs": [
        {
          "name": "",
          "type": "uint256"
        }
      ],
      "payable": false,
      "stateMutability": "view",
      "type": "function"
    },
    {
      "constant": true,
      "inputs": [],
      "name": "getTargetCrowdSale",
      "outputs": [
        {
          "name": "",
          "type": "address"
        }
      ],
      "payable": false,
      "stateMutability": "view",
      "type": "function"
    },
    {
      "constant": true,
      "inputs": [],
      "name": "getMyTokenBalance",
      "outputs": [
        {
          "name": "",
          "type": "uint256"
        }
      ],
      "payable": false,
      "stateMutability": "view",
      "type": "function"
    },
    {
      "constant": true,
      "inputs": [],
      "name": "getBalance",
      "outputs": [
        {
          "name": "",
          "type": "uint256"
        }
      ],
      "payable": false,
      "stateMutability": "view",
      "type": "function"
    }
  ],
  "bytecode": "0x60606040526107f8806100136000396000f3006060604052600436106100af576000357c0100000000000000000000000000000000000000000000000000000000900463ffffffff168063029073ad146100b157806312065fe0146100c657806334fcf437146100ef5780633610724e146101125780635dfee9bb1461013557806362e7f32214610158578063708eea9514610181578063776d1a01146101d6578063a6b3abba1461020f578063ad7d59fc14610238578063e0c6190d1461024d575b005b34156100bc57600080fd5b6100c4610262565b005b34156100d157600080fd5b6100d9610359565b6040518082815260200191505060405180910390f35b34156100fa57600080fd5b6101106004808035906020019091905050610378565b005b341561011d57600080fd5b61013360048080359060200190919050506103d9565b005b341561014057600080fd5b610156600480803590602001909190505061048d565b005b341561016357600080fd5b61016b610528565b6040518082815260200191505060405180910390f35b341561018c57600080fd5b610194610532565b604051808273ffffffffffffffffffffffffffffffffffffffff1673ffffffffffffffffffffffffffffffffffffffff16815260200191505060405180910390f35b34156101e157600080fd5b61020d600480803573ffffffffffffffffffffffffffffffffffffffff1690602001909190505061055b565b005b341561021a57600080fd5b6102226105d4565b6040518082815260200191505060405180910390f35b341561024357600080fd5b61024b6105de565b005b341561025857600080fd5b6102606106d5565b005b60008073ffffffffffffffffffffffffffffffffffffffff166000809054906101000a900473ffffffffffffffffffffffffffffffffffffffff1673ffffffffffffffffffffffffffffffffffffffff16141515610356576000809054906101000a900473ffffffffffffffffffffffffffffffffffffffff1690508073ffffffffffffffffffffffffffffffffffffffff1663029073ad6040518163ffffffff167c0100000000000000000000000000000000000000000000000000000000028152600401600060405180830381600087803b151561034157600080fd5b6102c65a03f1151561035257600080fd5b5050505b50565b60003073ffffffffffffffffffffffffffffffffffffffff1631905090565b3073ffffffffffffffffffffffffffffffffffffffff166000809054906101000a900473ffffffffffffffffffffffffffffffffffffffff1673ffffffffffffffffffffffffffffffffffffffff161415156103d657806001819055505b50565b60006001543073ffffffffffffffffffffffffffffffffffffffff16310282111580156104545750600073ffffffffffffffffffffffffffffffffffffffff166000809054906101000a900473ffffffffffffffffffffffffffffffffffffffff1673ffffffffffffffffffffffffffffffffffffffff1614155b15610489576000809054906101000a900473ffffffffffffffffffffffffffffffffffffffff16905081600254016002819055505b5050565b600060025482111580156104ef5750600073ffffffffffffffffffffffffffffffffffffffff166000809054906101000a900473ffffffffffffffffffffffffffffffffffffffff1673ffffffffffffffffffffffffffffffffffffffff1614155b15610524576000809054906101000a900473ffffffffffffffffffffffffffffffffffffffff16905081600254036002819055505b5050565b6000600154905090565b60008060009054906101000a900473ffffffffffffffffffffffffffffffffffffffff16905090565b3073ffffffffffffffffffffffffffffffffffffffff168173ffffffffffffffffffffffffffffffffffffffff161415156105d157806000806101000a81548173ffffffffffffffffffffffffffffffffffffffff021916908373ffffffffffffffffffffffffffffffffffffffff1602179055505b50565b6000600254905090565b60008073ffffffffffffffffffffffffffffffffffffffff166000809054906101000a900473ffffffffffffffffffffffffffffffffffffffff1673ffffffffffffffffffffffffffffffffffffffff161415156106d2576000809054906101000a900473ffffffffffffffffffffffffffffffffffffffff1690508073ffffffffffffffffffffffffffffffffffffffff1663ad7d59fc6040518163ffffffff167c0100000000000000000000000000000000000000000000000000000000028152600401600060405180830381600087803b15156106bd57600080fd5b6102c65a03f115156106ce57600080fd5b5050505b50565b60008073ffffffffffffffffffffffffffffffffffffffff166000809054906101000a900473ffffffffffffffffffffffffffffffffffffffff1673ffffffffffffffffffffffffffffffffffffffff161415156107c9576000809054906101000a900473ffffffffffffffffffffffffffffffffffffffff1690508073ffffffffffffffffffffffffffffffffffffffff1663e0c6190d6040518163ffffffff167c0100000000000000000000000000000000000000000000000000000000028152600401600060405180830381600087803b15156107b457600080fd5b6102c65a03f115156107c557600080fd5b5050505b505600a165627a7a7230582027c7b5e90c6b726db70c908833872809706a4badf5d980d8d76d314890c125a60029",
  "source": "pragma solidity 0.4.19;\n\nimport \"./Crowdsale.sol\";\n\n/** @title NotPoisoned */\ncontract User {\n\n\taddress targetCrowdSale;\n\tuint targetRate;\n\tuint totalToken;\n\n\n\t/* Constructor */\n\tfunction User() payable {}\n\n\tfunction enterQueue() external {\n\t\tif (targetCrowdSale != address(0)){\n\t\t\tCrowdsale _targetCrowdSale = Crowdsale(targetCrowdSale);\n\t\t\t_targetCrowdSale.enterQueue();\n\t\t}\n\t}\n\n\tfunction checkTime() external {\n\t\tif (targetCrowdSale != address(0)){\n\t\t\tCrowdsale _targetCrowdSale = Crowdsale(targetCrowdSale);\n\t\t\t_targetCrowdSale.checkTime();\n\t\t}\n\t}\n\n\tfunction checkPlace() external {\n\t\tif (targetCrowdSale != address(0)){\n\t\t\tCrowdsale _targetCrowdSale = Crowdsale(targetCrowdSale);\n\t\t\t_targetCrowdSale.checkPlace();\n\t\t}\n\t}\n\n\tfunction buyTokens(uint amount) external {\n\t\tif ((amount <= this.balance * targetRate) && (targetCrowdSale != address(0))) {\n\t\t\tCrowdsale _targetCrowdSale = Crowdsale(targetCrowdSale);\n\t\t\t_targetCrowdSale.buyTokens.value(amount);\n\t\t\ttotalToken = totalToken + amount;\n\t\t}\n\t}\n\n\tfunction refundTokens(uint amount) external {\n\t\tif ((amount <= totalToken) && (targetCrowdSale != address(0))) {\n\t\t\tCrowdsale _targetCrowdSale = Crowdsale(targetCrowdSale);\n\t\t\t_targetCrowdSale.refundTokens.value(amount);\n\t\t\ttotalToken = totalToken - amount;\n\t\t}\n\t}\n\n//_target.bid.value(amount)();\n\n\tfunction setRate(uint rate) external {\n\t\tif (targetCrowdSale != address(this)) {\n\t\t\ttargetRate = rate;\n\t\t}\n\t}\n\n\tfunction setTarget(address crowdSale) external {\n\t\tif (crowdSale != address(this)) {\n\t\t\ttargetCrowdSale = crowdSale;\n\t\t}\n\t}\n\n\tfunction getTargetRate() constant returns (uint) {\n\t\treturn targetRate;\n\t}\n\n\tfunction getTargetCrowdSale() constant returns (address) {\n\t\treturn targetCrowdSale;\n\t}\n\n\tfunction getMyTokenBalance() constant returns (uint) {\n\t\treturn totalToken;\n\t}\n\n\tfunction getBalance() constant returns (uint) {\n\t\treturn this.balance;\n\t}\n\n\tfunction() payable {}\n}\n",
  "sourcePath": "/Users/adityasrivastava/Documents/coding-projects/blockchain/dev-decal/sp18-midterm-p1/contracts/User.sol",
  "compiler": {
    "name": "solc",
    "version": "0.4.19+commit.c4cbbb05.Emscripten.clang"
  },
  "schemaVersion": "1.0.1",
  "updatedAt": "2018-03-08T23:23:56.961Z"
}